:020000040800F2
:10000000B85500206D02000893250008F31F000872
:1000100091250008770F00088D36000800000000C9
:10002000000000000000000000000000AD0100081A
:10003000850F00080000000009020008A533000831
:10004000870200088702000887020008870200086C
:10005000870200088702000887020008870200085C
:1000600087020008011000086D10000887020008D0
:10007000870200088702000887020008870200083C
:1000800087020008870200088702000800000000BD
:1000900000000000000000000000000087020008CF
:1000A0008702000887020008B934000887020008A8
:1000B0000935000815350008870200088702000886
:1000C00087020008870200088702000887020008EC
:1000D0008702000839360008870200080000000087
:1000E000870200088702000887020008000000005D
:1000F000000000000000000000000000870200086F
:10010000000000008702000887020008870200083C
:1001100000000000000000000000000000000000DF
:10012000790F00088702000887020008870200088C
:10013000870200080000000000000000000000002E
:10014000000000000000000000000000870200081E
:10015000870200088702000887020008870200085B
:10016000870200088702000800000000000000006D
:10017000000000000000000000000000000000007F
:1001800000000000870200080000000000000000DE
:1001900087020008DFF810D000F0A2FC00480047FA
:1001A0006D3F0008AFF30080B85500202C4B196854
:1001B0000868B0E8F04F80F30988BFF36F8F4FF005
:1001C000000080F3118870470000000008480068B4
:1001D000006880F308884FF0000080F3148862B64E
:1001E00061B6BFF34F8FBFF36F8F00DF00BF00BF5B
:1001F00008ED00E0DFF80C00016841F470010160D7
:10020000704700BF88ED00E0EFF30980BFF36F8F08
:10021000134B1A681EF0100F08BF20ED108A20E95A
:10022000F04F106009B44FF0500080F31188BFF315
:100230004F8FBFF36F8F05F0CBF94FF0000080F3C5
:10024000118809BC19680868B0E8F04F1EF0100F5B
:1002500008BFB0EC108A80F30988BFF36F8F704736
:1002600008060020EFF3058070470000064880472D
:1002700006480047FEE7FEE7FEE7FEE7FEE7FEE78B
:10028000FEE7FEE7FEE7FEE7A93400089501000857
:100290002DE9F05F0546002092469B4688460646BB
:1002A000814640241BE0284641464746224600F04E
:1002B000EAF953465A46C01A914110D311461846DE
:1002C000224600F0D1F92D1A67EB01084F4622466D
:1002D0000120002100F0C8F917EB00094E41201E53
:1002E000A4F10104DFDC484631462A464346BDE816
:1002F000F09F40EA01039B0703D009E008C9121FE1
:1003000008C0042AFAD203E011F8013B00F8013BCF
:10031000521EF9D27047D2B201E000F8012B491EFB
:10032000FBD270470022F6E710B513460A46044692
:100330001946FFF7F0FF204610BD421C10F8011BC4
:100340000029FBD1801A7047034611F8012B00F8F1
:10035000012B002AF9D11846704700000FB400B5F0
:100360008DB010A909900B9000914FF0FF300A90CA
:1003700000200C9005480690054807906A4609A899
:100380000F9900F0A5F90DB05DF814FBED0600081B
:100390000B0700082DE9FF5F1D464FF0FF3BD5E935
:1003A000014691465F464FF00008A9697F1C0198FD
:1003B0008847296A824688470028F6D1BAF1FF3F6C
:1003C0000CD024F4C064002E19DD600614D5BAF1F7
:1003D0002B0F09D0BAF12D0F0ED103E0584604B00F
:1003E000BDE8F09F44F48064A9697F1C01988847A8
:1003F000761E8246002E02DDBAF1300F03D0B9F12D
:10040000000F26D032E0A969761E44F400747F1CE8
:10041000019888478246002E05DDBAF1780F06D094
:10042000BAF1580F03D0B9F1000F10D01EE0B9F1A6
:10043000000F02D0B9F1100F18D1A969761E24F46B
:1004400000747F1C019888478246102002E0082033
:1004500000E00A20814609E008FB0908A969761E28
:1004600044F400747F1C019888478246002E05DD05
:100470004946504600F017F90028EDDAE96901987D
:100480008847A00502D46FF00100A8E7E00725D156
:10049000600613D5600502D5C8F1000000E04046B3
:1004A00029680A1D2A600968220501D5087015E02F
:1004B000220701D5088011E008600FE02868011DBF
:1004C00029600068210502D580F8008006E0210738
:1004D00002D5A0F8008001E0C0F8008038467EE731
:1004E0002DE9FE4F81EA030404F0004421F00041AD
:1004F00000944FF0000B23F0004350EA01045ED05B
:1005000052EA03045BD0C3F30A54C1F30A552C44E6
:10051000A4F2F3340194A0FB0254C1F3130141F49B
:100520008011C3F3130343F4801301FB024400FB67
:10053000034E840A970A44EA815447EA8357A4FB8E
:10054000076802958D0A05FB07854FEA932C04FB8B
:100550000C542705029D4FEA065847EA1637B5EBBB
:1005600008056EEB070C870E920E47EA811742EAE8
:100570008312A7FB0201B6EB0B0164EB00042B0D09
:1005800043EA0C335E1844EB1C50DA465146E7FB55
:100590000201C5F313044FEA0B3343EA14534FEA45
:1005A0000432019C43EA0603A4F10C040294009C6B
:1005B000CDE900B400F000F903B0BDE8F08F0020F1
:1005C0000146F9E70EB540F2334102910021CDE931
:1005D00000110A460B4600F0EFF803B000BD00F032
:1005E000004230F000400AD0C10D01F56071C0F347
:1005F000160042EA0151C20840071143704700202B
:100600000146704701F0004330B421F0004150EA48
:10061000010206D00A0DA2F56072C1F31301002A8F
:1006200002DC30BC00207047440F44EAC104C10022
:10063000E01830BC00EBC25000F078B830B50B4683
:10064000014600202022012409E021FA02F59D4202
:1006500005D303FA02F5491B04FA02F52844151ED6
:10066000A2F10102F1DC30BD202A04DB203A00FABD
:1006700002F1002070479140C2F1200320FA03F3F9
:10068000194390407047202A04DB203A21FA02F0F7
:100690000021704721FA02F3D040C2F120029140BC
:1006A0000843194670473A2800D2303820F020021B
:1006B000412A01D3A2F13700884201D34FF0FF3025
:1006C00070470000026811441378016018467047B3
:1006D000D160044951610449116200211161114640
:1006E00000F028BAC5060008290B0008426842B18C
:1006F000016811F8013B23B1521EC0E900121846EF
:1007000070470121C160881E704742685AB1C368B2
:10071000016843B983688B4205D0491E521CC0E969
:100720000012002070474FF0FF3070470029A8BF2B
:100730007047401C490008BF20F00100704710B40A
:10074000B0FA80FC00FA0CF050EA010404BF10BCBF
:10075000704749B1CCF1200421FA04F411FA0CF1EC
:1007600018BF012121430843A3EB0C01CB1D4FEA25
:1007700000614FEA102042BF002010BC704700EB20
:10078000C35010440029A4BF10BC7047401C49004E
:1007900008BF20F0010010BC704710B5141E73F1A3
:1007A000000408DA401C41F1000192185B411A4331
:1007B00001D120F0010010BD2DE9F04D92469B467D
:1007C00011B1B1FA81F202E0B0FA80F22032904623
:1007D000FFF74AFF04460F4640EA0A0041EA0B01D0
:1007E00053465A46084313D0114653EA010019D024
:1007F000C8F140025046FFF746FF05460E465046F8
:1008000059464246FFF730FF084305D0012004E077
:1008100020463946BDE8F08D0020054346EAE076E3
:100820002C4337430A986305E40AA0EB0800002232
:10083000FD0A44EA47540A3002D500200146E9E7A0
:10084000010510196941DDE9084500196941BDE854
:10085000F04DA2E72DE9FE4F804681EA0300C00F6C
:100860000C46009021F0004123F00045B8EB020057
:10087000A94105D24046214690461C460B460246F9
:1008800023F00040104347D0270DC7F30A00C3F3FD
:100890000A510290401A019040286BDAC3F313000A
:1008A00040F4801B0098924620B10023D2EB030A4B
:1008B00063EB0B0B01985946C0F140025046FFF71D
:1008C000D3FE06460D4650465946019A00F01AF9E5
:1008D00010EB08006141002487EA115284EAE773B3
:1008E0001A4340D0009A62B3019A012A4FEA075294
:1008F00015DC001B61EB02014FF0004202EA0752D7
:10090000CDE90042001C41F5801132462B46FFF72D
:1009100053FF03B0BDE8F08F40462146F9E7001BC6
:1009200061EB0201001C41F5801300185B412018A7
:10093000A2F5001747EB030140EAD570B6196D41E7
:1009400011E06D084FEA360645EAC0754FEA0752D6
:10095000001B61EB0201001C41F5801149084FEAC0
:1009600030000019514132462B4603B0BDE8F04F2C
:10097000FFF713BF0098012240000023D0EB0202D2
:1009800063EBE073009821464FEAE074B8EB000097
:1009900061EB0401E9E783F000435BE781F000418C
:1009A00058E72DE9F04D81EA030404F0004B21F0F3
:1009B000004514464FF0000A23F0004150EA0502BA
:1009C00020D054EA01021DD0C5F30A570246C5F3F0
:1009D0001303C1F31300C1F30A5640F4801543F426
:1009E0008013A7EB0608101BD64608F2FD3873EB00
:1009F000050002D308F1010801E092185B41B8F14B
:100A0000000F03DA00200146BDE8F08D00204FF40E
:100A10008011064684460EE0171B73EB050705D3CD
:100A2000121B63EB050306434CEA010C49084FEA2D
:100A3000300092185B4150EA0107EDD152EA030001
:100A400012D082EA040083EA0501084305D0101B96
:100A5000AB4106D20122002306E000224FF0004302
:100A600002E06FF0010253101AEB06004CEB085144
:100A700010EB0A0041EB0B01BDE8F04DFFF78DBE16
:100A8000C1F30A52C1F3130140F2FF3341F4801164
:100A90009A4202DA00200146704740F233439A42FC
:100AA000A2F2334202DC5242FFF7EDBDFFF7DCBD9C
:100AB00030B5041E71F1000404DB4FF000444042E5
:100AC00064EB0101141E73F1000405DB1C464FF0BA
:100AD0000043524263EB0403994208BF904230BD89
:100AE000064C074D06E0E06840F0010394E807007B
:100AF00098471034AC42F6D3FFF750FBE467000888
:100B000004680008202A06DBCB17203A41FA02F0DD
:100B100043EAE07306E041FA02F3D040C2F120025A
:100B20009140084319467047C0B24FF4F05100F0AD
:100B300099B900002DE9F34F8BB04FF0000801F197
:100B40000C000C464FF0010B46460DF1080A0190CF
:100B50006269012101989047051E2DD0252D2CD0CA
:100B6000216A8847C0B16269012101989047216AD2
:100B700088470028F7D1411E62690198904700E03C
:100B8000761CA1690B988847216A88470028F7D10D
:100B9000E1690B988847DBE7A1690B98884707460E
:100BA000A84201D1761CD3E7E1690B9888477F1CE6
:100BB00002D1B8F1000F6FD047E1002762693D46CE
:100BC0003946019890472A2804D162690121019889
:100BD00090470125DFF888926269012101989047CA
:100BE000A0F130010A290AD24F45E5DC07EB870165
:100BF00000EB4107303FDFD445F01005ECE7E90694
:100C000001D46FF000476C280AD04C2814D0682813
:100C100015D06A280DD074281CD07A281AD01DE06F
:100C200062690121019890476C2802D045F00405C3
:100C300014E045F002050DE045F020050AE0626988
:100C4000012101989047682802D045F0080505E089
:100C500045F400656269012101989047C4E9015794
:100C600065283DD019DC58287AD00CDC452837D0CF
:100C700004DC252826D0412831D131E046282FD068
:100C800047282CD12CE05B2877D0612828D0632816
:100C90007CD0642823D15AE0D1E06F2848D008DC0A
:100CA00066281DD067281BD0692821D06E2816D150
:100CB00027E0702845D0732868D0752847D0782859
:100CC0000DD14DE0A1690B988847054625283FF4D2
:100CD00069AFE1690B9888476D1C3FF46AAFB4E0D7
:100CE00023466A466FF001000B99AFF300809FE046
:100CF00045F040006060A80723464FF0000236D45C
:100D00003EE0E8077FF447AF2068011D21600068DE
:100D1000290501D506701BE7290701D5068017E7CD
:100D2000A90703D5F117C0E9006111E706600FE7D5
:100D300045F040006060A80723464FF0080216D433
:100D40001EE040F60E0125EA0100606016E045F065
:100D500040006060A80723464FF00A0207D40FE066
:100D600045F040006060A80708D5234610226FF0C8
:100D700001000B99AFF300805AE007E023461022F0
:100D80006FF001000B99FFF705FB51E04FF00009F0
:100D90004F464B46632802D05B2807D041E02079BC
:100DA000C00601D40120A06001273AE06269012158
:100DB000019890475E2805D14FF0010962694946C4
:100DC00001989047216939B900210A46534643F8F2
:100DD0002120491C0829FADBB0B3216969B9C11780
:100DE00000EBD16253110AEB830122F01F02821A39
:100DF00001200B68904003430B6062690121019858
:100E000090475D28E8D1B9F1000F09D00020514684
:100E100051F82020D24341F82020401C0828F7DB5D
:100E200002AB224600976FF001000B99AFF30080F0
:100E300000280CDA401C08D1BBF1000F05D04FF0A0
:100E4000FF300DB0BDE8F08FFFE74046F9E7E90756
:100E500001D108F1010806444FF0000B78E60000CC
:100E6000CCCCCC0C7F2801D9002208E0064A02EB4A
:100E70005002C007127800D1120902F00F020120BF
:100E800090400840704700000C67000870B58C184F
:100E900010F8015B15F0070301D110F8013B2A118E
:100EA00006D110F8012B03E010F8016B01F8016B7B
:100EB0005B1EF9D12B0705D40023521E0DD401F877
:100EC000013BFAE710F8013BCB1A921C03E013F840
:100ED000015B01F8015B521EF9D5A142D8D3002075
:100EE00070BD10B50246806B016C11F0500F016CA3
:100EF00005D011F0100F28D000F09EF910BD41F47C
:100F00000071016401688A6812F0405F04BF027ECC
:100F1000002A17D1CA6A12F4700F1CBF8A6812F433
:100F2000806F0FD14A6822F020024A60016C21F4E0
:100F300080710164016C11F4805F03D1016C41F098
:100F40000101016400F076F910BD806BC16CBDE851
:100F500010401046084710B5806B40210164416C79
:100F600041F00401416400F067F910BD10B5806BD9
:100F700000F061F910BDFEE7014800F043BB00003E
:100F80003C080020704700002DE9F041002406468F
:100F9000274605F079F8054604F03AF90F4900BFF5
:100FA00051F8340040B1601CC4B2142CF8D304F0E2
:100FB0004FF93846BDE8F08101EBC40041F83450E8
:100FC000466004F045F94FF0FF31012004F088F845
:100FD000002818BF0120BDE8F08100008006002035
:100FE000064B0020191D14224FEA000C43F830C0B4
:100FF000401C41F808CB521EF8D1704780060020F3
:1010000008B5012000901448016811F0080F08BFCE
:1010100008BD082101601148016911F0080F11D0C5
:101020000F486946006804F0F3F90098002808BFEB
:1010300008BD4FF080500B490860BFF34F8FBFF3DE
:101040006F8F08BD006910F0080F18BF08BD4FF082
:1010500000500549086008BD143C014000000240F2
:101060004800002004ED00E0180402400348016835
:1010700011F0100F1CBF102101607047143C01409B
:1010800072B6FEE730B482B04FF0000CCDF804C069
:1010900090F83C20012A01BF022002B030BC70470A
:1010A000012280F83C200A6807230468092A14D921
:1010B000E5680A3A02EB420203FA02F225EA02026A
:1010C000E2600B788A680A3B03EB430302FA03F3FE
:1010D0000268D4682343D36011E0256902EB420221
:1010E00003FA02F225EA020222610B788A6803EB16
:1010F000430302FA03F302681469234313614A6845
:101100001F23072A16D20468656B521E02EB820267
:1011100003FA02F225EA020262630B790A885B1E77
:1011200092B203EB830302FA03F30268546B234386
:1011300053632DE004680D2A15D2256BD21F02EBF4
:10114000820203FA02F225EA020222630B790A887C
:10115000DB1F92B203EB830302FA03F30268146B02
:101160002343136314E0E56A0D3A02EB820203FAAB
:1011700002F225EA0202E2620B790A880D3B92B282
:1011800003EB830302FA03F30268D46A2343D362B6
:10119000254B0468234A9C4204BF0C68122C03D1DF
:1011A000546844F48004546004689C422FD10B6856
:1011B000102B18BF112B2AD1536843F4000353603E
:1011C0000968102923D11949194A0968B1FBF2F1BC
:1011D00001EB810149000191009118D0B1F1004F5C
:1011E0001BD20029D8BF002105DD11F0010102D07A
:1011F000019A521E0192009A491C521C914206DA31
:10120000019B891C5B1E5B1E01939142F8DB80F8F9
:101210003CC002B0002030BC70470199491E0191CA
:10122000FCD1F4E700230140002001400406002027
:1012300040420F00704770477047000070B50400CF
:101240004FF0000504BF012070BD206C002628B9B6
:10125000204600F0ADF8666484F83C60206C10F025
:10126000100F18BF012503D084F83C60284670BDDC
:10127000206C20F4885040F0020020644948416806
:1012800021F4403141604168626811434160206847
:10129000416821F48071416020684168226941EA17
:1012A000022141602068416821F04071416020685E
:1012B0004168A268114341602068816821F400619F
:1012C000816020688168E26811438160A06A6FF0E4
:1012D0007061C8422068816821F070618160206877
:1012E000816808BF21F040510BD0A26A1143816090
:1012F0002068816821F04051816020688168E26A3D
:10130000114381602068816821F0020181602068BA
:101310008168227E41EA4201816094F82000002821
:101320002068416808BF21F400610ED041F40061DB
:1013300041602068416821F4604141602068416853
:10134000194B626A03EB4232114341602068C16A63
:1013500021F47001C1622068C16AA28B134B03EBB8
:1013600002521143C1622068816821F400718160DA
:101370002068816894F8302041EA42218160206829
:10138000816821F48061816020688168626941EA36
:10139000822181606664206C20F0020040F0010030
:1013A000206461E70023014000E0FFFF0000F0FF40
:1013B000F0B587B000250646009501950295039586
:1013C00004950068A0F18041B1F590311CBF07B0D1
:1013D000F0BD2548016841F480710160006823492F
:1013E00000F480700590086840F00100086008680B
:1013F00000F001000590086840F0020008600868ED
:10140000032700F002000590E020CDE900076946BF
:10141000174800F0DDFA0120CDE900076946029582
:10142000144800F0D5FA154C1348C4E9000500151E
:10143000A560C4E90350400060618000A0614011D4
:10144000E0613804206204206062C4E90A75204625
:10145000256300F0C5F9002818BFFFF711FEB4633B
:10146000A66307B0F0BD00004438024030380240A7
:101470000000024000040240106402403C080020CA
:1014800030B583B000250446019590F83C00134622
:10149000012802BF022003B030BD012084F83C00C7
:1014A0002068826812F0010F2BD1826842F001029D
:1014B00082604E484E4A0068B0FBF2F010EB4000EC
:1014C000019000901DD0B0F1004F75D20028D8BF18
:1014D000002005DD10F0010002D0019A521E019299
:1014E000009A401C521C90420BDA00BFDDF804C089
:1014F000801CACF1010CACF1010CCDF804C09042A1
:10150000F4DB2068826812F4807F03D0826822F4C2
:10151000807282602068826812F0010F56D0226CBF
:1015200022F0010222F4C06242F480722264406818
:1015300010F4806F05D0206C20F4005040F48050EF
:101540002064206C10F4805F08BF656403D0606C79
:1015500020F00600606484F83C50A26B2648254DBC
:10156000D063A26B25481064A26B2548D064226822
:101570006FF0220010602068426842F08062426092
:101580002068826842F48072826020680A4600F116
:101590004C0C6146A06B00F0D1F9686810F01F0F89
:1015A00020680AD0A0F18041B1F5903104BF816874
:1015B00011F0405F05D011E013E0816811F0405F49
:1015C0000CD1816841F08041816007E0206C40F0DF
:1015D00010002064606C40F00100606403B00020E3
:1015E00030BD0198401E0190FCD18AE7040600201E
:1015F00040420F0000230140E30E00086D0F000879
:10160000570F00082DE9F843044600270097734858
:101610004FF41651A56D0068B0FBF1F92E6894F8EF
:101620005C00082101FA00F0304211D02068026805
:1016300012F0040F0CD0026822F00402026094F849
:101640005C0001FA00F0A860606D40F00100606588
:1016500094F85C004FF0010808FA00F0304209D01D
:101660002168496911F0800F04D0A860606D40F0D6
:101670000200606594F85C1004208840304209D074
:101680002168096811F0020F04D0A860606D40F075
:101690000400606594F85C1010208840304220D02F
:1016A0002168096811F0080F1BD0A8602068016844
:1016B00011F4802F09D0006810F4002F02D0A16C23
:1016C00079B10CE0216C51B90BE0016811F4807F15
:1016D00003D1016821F008010160216C09B12046A5
:1016E000884794F85C102020884030424AD0216816
:1016F000096811F0100F45D0A86094F8350005284E
:101700002068016809D011F4802F2BD0006810F4F4
:10171000002F24D0E16B21B332E021F016010160EB
:101720002068416921F080014161206C002804BFDC
:10173000A06C002804D02068016821F00801016035
:1017400094F85C004FF03F0101FA00F0A86084F8C3
:10175000358084F83470216DD1BBBDE8F883616CAD
:1017600071B90FE0016811F4807F07D1016821F0A1
:101770001001016084F8358084F83470E16B09B1A0
:1017800020468847606D002808BFBDE8F883606D7B
:1017900010F0010F17D04FF0050084F835002068D5
:1017A000016821F001010160009800F10100009042
:1017B000484504D82068006810F0010FF4D184F87F
:1017C000358084F83470E16C002908BFBDE8F883E7
:1017D000204601B0BDE8F0430847000004060020A1
:1017E00070B5044600F0DAF90646002C04BF01206B
:1017F00070BD022084F83500002584F8345020683C
:10180000016821F0010101602068006810F0010FFB
:1018100010D000BF00F0C2F9801B052805D9202098
:101820006065032084F8350070BD2068006810F002
:10183000010FEFD1216808683D4A1040D4E9012327
:101840001A43D4E9033C43EA0C031A4363691A437D
:10185000A3691A43E3691A43236A1A431043626A6D
:10186000042A03D1D4E90B231A4310430860D4F8A7
:1018700000C0DCF81400012320F00701606A40EA90
:101880000102042837D1A16AE06A0A4318B3A669A5
:1018900056B1B6F5005F14D000291CBF01290229FA
:1018A00021D003291CD026E019B1012905D0022935
:1018B00021D110F0807F1ED015E0B0F1C07F1AD189
:1018C00011E081B1012907D002290CD0032908BFFA
:1018D000B0F1C07F07D00EE010F0807F03D10AE0A6
:1018E00010F0807F07D04FF04000606584F83530FD
:1018F0004FF0010070BDCCF8142020680D4AC1B231
:10190000A1F11001A2FB01210B4A4FEA1111032999
:10191000525CE2656FF3090088BF001D3F219140D2
:10192000A0658160656584F83530002070BD0000D9
:101930003F8010F0ABAAAAAAEC66000870B490F839
:101940003450846D4FF0000C012D02BF022070BC9A
:101950007047012580F8345090F835600025012E3D
:101960001CBF80F834504FF0020C02D070BC6046AF
:101970007047022680F83560456505682E6826F4B4
:1019800080262E6005686B608368402B036803BF68
:101990009A600268D16099601CBF0168CA6090F8C3
:1019A0005C103F2202FA01F1A16001680A6842F06E
:1019B00016020A60016C21B101680A6842F008024F
:1019C0000A600068016841F001010160CEE7000093
:1019D0002DE9F84F6E4D6D4C00224FF001094FF08C
:1019E000030C4FF00F0A05F1040E00BF0B6809FA53
:1019F00002F63340B3427DD10F7907F00307012F80
:101A000018BF022F19D1D0F808804FEA42070CFA0C
:101A100007FB28EA0B08D1F80CB00BFA07F747EAE6
:101A200008078760476827EA06060F79C7F300179B
:101A300007FA02F747EA060646604E683CEA0606E1
:101A40000BD0C76856000CFA06F827EA0807D1F849
:101A5000088008FA06F63E43C6600E7906F00306D3
:101A6000022E11D1D60800EB8607D7F82080560742
:101A7000F60E0AFA06FB28EA0B08D1F810B00BFAAA
:101A800006F646EA08063E62076856000CFA06F8B3
:101A900027EA080791F8048008F0030808FA06F618
:101AA0003E4306604E6816F4403F69D0266846F40F
:101AB00080462660266806F48046009622F00306DB
:101AC00006F1804707F59837D7F808889607360F4C
:101AD0000AFA06FB28EA0B08A0F1804BBBF5003B95
:101AE00022D0A0F1804BBBF5013B08BF4FF0010BAA
:101AF0001AD000E044E0A0F1804BBBF5023B08BFE8
:101B00004FF0020B10D0A0F1804BBBF5033B08BF98
:101B10004FF0030B08D0A0F1804BBBF5043B0CBF8A
:101B20004FF0040B4FF0070B0BFA06F646EA0806D7
:101B3000C7F808682E684F689E4317F4803F18BFA7
:101B40001E432E60DEF800604F689E4317F4003F8E
:101B500018BF1E43CEF800600E4F3E68D1F80480D7
:101B60009E4318F4801F18BF1E433E600A4F3E6814
:101B7000D1F804809E4318F4001F18BF1E433E6036
:101B8000521C102AFFF432AFBDE8F88F44380240EF
:101B9000003C0140083C01400C3C01400148806889
:101BA00070470000F805002002488168027811445F
:101BB00081607047F80500200B4810B5016841F4BA
:101BC00000710160016841F480610160016841F4C5
:101BD00080710160032000F0A3F8002000F006F8F7
:101BE00000F03EF8002010BD003C024010B5014658
:101BF00088B000221C2000F061F81C2000F04EF894
:101C000014480024016841F001010160006805A941
:101C100000F001000690684600F094F800F0B2F879
:101C20000D494000B0FBF1F0411E0C484FF08042DE
:101C3000026040F2E732C0E90324C0E9011400F079
:101C4000B3F800280ABF0548012000F0DBF808B00F
:101C500010BD00004038024040420F009C080020A8
:101C60000C4882B0016841F480410160006800F4D2
:101C7000804000900848016841F080510160006890
:101C8000002200F0805000900F21901E02B000F062
:101C900015B8000044380240403802400028B8BF60
:101CA000704700F01F01012202FA01F14009800093
:101CB00000F1E020C0F8001170470000174B10B48D
:101CC0001B68C3F30223C3F1070CBCF1040F88BFE8
:101CD0004FF0040C1C1D072C34BF0023DB1E012415
:101CE00004FA0CFCACF1010C0CEA0101994004FA75
:101CF00003F35B1E1A40114300284FEA0111A1BFF4
:101D000000F1E02080F8001410BC704700F00F00D4
:101D100000F1E02080F8141D10BC70470CED00E0CD
:101D2000074900F007000A684FF6FF031A4042EA2D
:101D3000002040F0FD7040F08060086070470000B7
:101D40000CED00E00F2202600C4A136803F003035D
:101D50004360136803F0F0038360136803F4E053F7
:101D6000C36012684FF4E05303EAD20202610448F0
:101D7000006800F007000860704700000838024063
:101D8000003C02400448054900680968044AC1F360
:101D90008221515CC8407047040600200838024088
:101DA0000467000870477047002804BF012070478F
:101DB00010B5044690F83D0028B9002084F83C0096
:101DC000204600F01EF8022084F83D00211D206806
:101DD00001F0E0FB012084F8460084F83E0084F81E
:101DE0003F0084F8400084F8410084F8420084F801
:101DF000430084F8440084F8450084F83D00002046
:101E000010BD704790F83D1001291CBF012070479C
:101E1000022180F83D100168CA6842F00102CA60E0
:101E20000068A0F18041B1F5803118BFB0F1804F5A
:101E300013D0A0F18041B1F580611CBFA0F18041B9
:101E4000B1F5006109D0A0F18041B1F540611CBF3E
:101E5000A0F18041B1F5A03104D1816801F0070102
:101E6000062903D0016841F001010160002070479C
:101E7000704770B50446006801694FF0000511F025
:101E8000020F1CBFC16811F0020F13D06FF00201E6
:101E90000161012020772068806910F0030F20463F
:101EA00002D0FFF7E5FF04E000F099F8204600F0CB
:101EB00097F825772068016911F0040F1CBFC168ED
:101EC00011F0040F13D06FF004010161022020779C
:101ED0002068806910F4407F204602D0FFF7C8FFD9
:101EE00004E000F07CF8204600F07AF825772068BE
:101EF000016911F0080F1CBFC16811F0080F13D061
:101F00006FF008010161042020772068C06910F09B
:101F1000030F204602D0FFF7ABFF04E000F05FF8AC
:101F2000204600F05DF825772068016911F0100F58
:101F30001CBFC16811F0100F13D06FF010010161C8
:101F4000082020772068C06910F4407F204602D026
:101F5000FFF78EFF04E000F042F8204600F040F862
:101F600025772068016911F0010F1CBFC16811F0CD
:101F7000010F05D06FF001010161204600F031F83A
:101F80002068016911F0800F1CBFC16811F0800F3B
:101F900005D06FF0800101612046FFF703FF206844
:101FA000016911F0400F1CBFC16811F0400F05D04E
:101FB0006FF040010161204600F01AF820680169C5
:101FC00011F0200F1ABFC16811F0200F70BD6FF023
:101FD000200101612046BDE87040FFF7E4BE704774
:101FE00070470068B0F1804F18BF7047FFF7DCBD45
:101FF0007047FEE710B4324A0479131F01684FF0AE
:10200000000C002C52D000294DD04479ACB1012CE9
:102010001CD0022C18BF4FF0010C20D08379002B6C
:1020200041D028490A1F012B21D0022B29D0032B94
:1020300018BF4FF0010C2ED035E0146824EA0101DE
:10204000116001681A6811431960E7E71C6824EA07
:10205000010119600168136819431160DEE71C680B
:10206000214319600168136819431160D6E70368BA
:102070000C6824EA03030B600068116808431060D1
:1020800011E00368146824EA0303136000680A6817
:102090001043086007E00368146823431360006876
:1020A0000A681043086010BC604670471C6824EA48
:1020B000010119600068116821EA0000DFE70000F3
:1020C000043C01400C3C01402DE9F0030A6892FAFF
:1020D000A2F3B3FA83F3DA407DD001250F244FF049
:1020E000030C00BF0E6805FA03F2324074D04E684C
:1020F000012E18BF022E20D18E68D0F8088092FAE7
:10210000A2F7B7FA87F74FEA47070CFA07F728EA6A
:10211000070792FAA2F8B8FA88F84FEA480806FAD0
:1021200008F647EA06068660CE68476802FB06F6B0
:1021300027EA020747EA060646600E69D0F80C80D7
:1021400092FAA2F7B7FA87F74FEA47070CFA07F7B0
:1021500028EA070792FAA2F8B8FA88F84FEA48087E
:1021600006FA08F647EA0606C6604E68022E37D120
:1021700092FAA2F6B6FA86F6082E16D24E69076AC9
:1021800092FAA2F8B8FA88F84FEA880804FA08F830
:1021900027EA080792FAA2F8B8FA88F84FEA8808FE
:1021A00006FA08F63E4306621AE04F69D0F824802A
:1021B000160A96FAA6F9B9FA89F94FEA890904FAD2
:1021C00009F996FAA6F6B6FA86F6B60028EA0908DC
:1021D00007FA06F601E01DE017E048EA0606466247
:1021E0004E68076892FAA2F8B8FA88F84FEA4808E9
:1021F0000CFA08F892FAA2F2B2FA82F2520027EA36
:10220000080706FA02F23A4302600A685B1CDA40E9
:102210007FF468AFBDE8F0030020704730B5044696
:10222000006885B00D4620F001002060684600F08F
:102230007BF8D5E90310626A084322F01F021043BD
:102240006062374A0298D5E90113B0FBF2F2D4F884
:1022500004C02CF03F0C4CEA020CC4F804C0DFF8B8
:10226000C4C0614598BF521C0AD900BF4FF4967C88
:1022700002FB0CF24FF47A7CB2FBFCF202F1010299
:10228000D4F820C02CF03F0C42EA0C0222623CD968
:102290004BB101EBC10202EB0111B0FBF1F21205EF
:1022A000120D30D006E001EB4101B0FBF1F2120556
:1022B000120D28D0B0FBF1F0184340F40040E16962
:1022C00021F0FF0121F44F410843E0616969E869A9
:1022D000A268084322F0FF0222F403421043A060E8
:1022E0002868216821F01A0108432060206840F026
:1022F00001002060A869216821F480610843206002
:1023000005B0002030BD0120D6E74900B0FBF1F256
:10231000C2F30B02042A2CBFB0FBF1F00420CEE77D
:1023200040420F00A0860100234A10B4116811F04A
:102330000C03224922D0DFF888C0042B08BF614675
:102340001CD0082B1AD11F4B1C6814F4800403D036
:10235000B4F5800F08BF6146D3F800C00CF03F0C05
:10236000B1FBFCFC19681B68C1F388110CFB01F17F
:10237000C3F301435B1C5B00B1FBF3F10160136825
:10238000DFF844C003F0F0031B091CF80330D94008
:1023900041601368C3F3822C0C4B13F80CC021FA74
:1023A0000CFCC0F808C01268C2F342329A5CD140FB
:1023B000C16010BC70470000083802400024F400DF
:1023C00040787D0104380240F46600080467000884
:1023D00001490860704700000406002070B40268DC
:1023E000214BDFF888C0224C224D984218BFB0F133
:1023F000804F04D060451CBFA042A84204D14E6863
:1024000022F0700242EA0602984218BFB0F1804FF3
:1024100014D0604518BFA04210D0A8421CBFA0F144
:10242000804CBCF5A03C09D0A0F1804CBCF5A23C8E
:102430001CBFA0F1804CBCF5A43C05D1D1F80CC068
:1024400022F4407242EA0C0202608A68C2620A8880
:102450008262984204BF09690163416941F0010148
:10246000416170BC00207047000001400004004042
:1024700000080040000C0040F0B50446C06885B07C
:102480000D46012710F4005F5CD1E9686868AA690D
:102490000843296911430843E16821F4037121F4D9
:1024A00014410843E060A868216921F440510843C1
:1024B00020616869616921F4407108436061684680
:1024C000FFF732FFA4F18040B0F588300BD0A4F1C3
:1024D0008040B0F5884008BF029905D0A4F1804043
:1024E000B0F58A302ED1039900291CBF2868002836
:1024F00028D0AA694FF00007244D3B464FF0190C35
:102500004FF03206B2F5004F1FD0830F8200A1FBBF
:102510000C01FDF7BDFE0146A5FB012040096FF04F
:102520001802424301EB820106EB0111A5FB0121D8
:10253000490901F0F00202EB001001F00F0108441C
:1025400080B2A06005B03846F0BD0218A1FB0C01B6
:102550005B41FDF79DFE0146A5FB012042090846AF
:102560006FF01801514300EB810006EBC000A5FBA2
:1025700000101301400900F0F80103EB410100F0E5
:102580000700084480B2A060DCE700001F85EB5123
:10259000FEE7FEE7054C4FF08055012002F05CF8A5
:1025A0002560BFF34F8FBFF36F8FF6E704ED00E0B8
:1025B000AEB0DFF818B19BF8000038B94FF0FF312A
:1025C000012002F08DFD01208BF80000C82002F0F0
:1025D00043F802F01DFEDFF8F8A09AED040A10EEB1
:1025E000100AFDF7FCFF9AED060A81460F4610EE31
:1025F000100AFDF7F4FF9AED010A0646884610EE30
:10260000100AFDF7ECFF9AED030A04460D4610EEA2
:10261000100AFDF7E4FF3B22CDF82890CDE90B72BC
:10262000CDE908689AF81420BAF80230BAF808C060
:10263000CDE905328DE83310BAF80030642225A1C7
:102640000EA801F025F80EA802F0D8FC1F4890ED66
:10265000080A10EE100AFDF7C2FF81461B480F461C
:1026600090ED0B0A10EE100AFDF7B9FF0646174869
:10267000884690ED0C0A10EE100AFDF7B0FF0446F4
:1026800012480D4690ED0D0A10EE100AFDF7A7FF57
:1026900082460E488B4690ED0A0A10EE100AFDF7AE
:1026A0009EFF0A4601468DE8060C3B20CDE90970E5
:1026B00004AB10A283E870030FA10EA800F0E8FF9E
:1026C0000EA802F09BFC02F0C3FD72E7040000209C
:1026D0001C08002025632C25642C25662C25662CDF
:1026E00025642C25642C25642C25662C2566256301
:1026F000000000006432000025732C25662C25663E
:102700002C25662C25662C2566256300164D154C58
:10271000164EDFF85C804FF000094FF0004A4FF092
:10272000804BAF046078B0B102F072FD4FF400400E
:10273000A8614010A86102F08BFDE0884008FEF718
:1027400023FC02F065FDC6F800A0C6F800B002F058
:102750007FFD84F80190C8F80070BFF34F8FBFF37E
:102760006F8FDFE7040000200004024018040240DD
:1027700004ED00E04FF00008FEF732FC2E4E4FF45F
:102780000070B0612D4D2E4F2E4CDFF8BCB04FF0D5
:10279000000A4FF0010900BF4FF0FF31012002F0A5
:1027A0009FFC02F035FD286820F0010028603868A1
:1027B00020B1386800EB80004000E060C7F800A05E
:1027C000286840F00100286002F042FDB8F1000FD7
:1027D00003D0B8F1010F0CD021E04FF40050B061EC
:1027E0002069401C20612069642888BF4FF00108DF
:1027F00015E02089FEF7C8FB02F00AFD13494FF0EF
:102800000050086002F024FD206F80B2FEF7BCFB90
:1028100002F0FEFC4FF40050B06102F019FD84F8A4
:10282000019084F80390DBF8000010F4807F04BF6F
:102830004FF48070B061AFE70004024000480140EF
:1028400024480140040000201404024018040240FF
:102850002DED068B82B06422FA21012002F0F8FBF4
:1028600064221E21002002F0F3FB474D1E20287534
:10287000464E9FED479ADFED479A9FED478ADFED81
:10288000478A474CB9EE00AAF1EE00AA002764205F
:1028900001F0E2FEA07800281CBF20693228F6D99A
:1028A00094ED0C0A10EE100AB042F0DA2888D4ED4C
:1028B0000E0A00EE100A04216FF00302B8EE400A7F
:1028C00039EE400A20EE281A41EE080AC4ED0E0A3D
:1028D000F4EECA0AF1EE10FA38BF84ED0EAA04D362
:1028E000F4EEEA0AF1EE10FA4BDCD4ED0F0A84EDB7
:1028F0000F0A70EE601AF0EE680A81EEA01AD4EDAD
:102900000E0AF0EE691A40EE210AB0EE480A41EED6
:10291000000ABDEEE00A10EE100A10F1040FB4BF79
:1029200010460428C8BF0846009000280DDD287D09
:1029300000990844FA28AADA89B26422002002F039
:1029400087FB287D009908440FE0A0DA297D4042EA
:1029500088420CDA81B26422012002F079FB297DE1
:1029600000980028B8BF4042081A28758FE7297DD3
:1029700088428CDD297D6422012002F069FB2F75DD
:1029800085E7C4ED0EAAB0E71C080020295C8F3D46
:1029900000808944CDCCCC3D0AD7233CCDCC4C3EE5
:1029A00004000020000000002DED0C8B82B00422FA
:1029B000F749F848FEF764FD9FEDF79A00278DED83
:1029C000009A3E46B8464FF01E0A9FEDF4AADFED8E
:1029D000F4CA9FEDF4DADFEDF4BADFF8D093F2EE4B
:1029E00008AA9FEDF3CA9FEDF3BADFEDF39A0197C2
:1029F000052001F031FEE64D2888FDF7E3FD9FED4F
:102A0000F08B53EC182BFDF76BFDFDF7FBFD00EE93
:102A1000100AA5F1740484ED0A0A6888FDF7D2FD56
:102A200053EC182BFDF75CFDFDF7ECFD00EE100AF2
:102A300084ED0B0ADDED000A94ED0B0A30EE800AFE
:102A40008DED000A0198401C0190A888FDF7BAFDA1
:102A500053EC182BFDF744FDFDF7D4FD00EE100AF2
:102A600084ED0C0AE888FDF7ADFD53EC182BFDF75B
:102A700037FDFDF7C7FD00EE100A84ED0D0A207941
:102A800028B101286AD0022800F06A8179E0E07854
:102A9000002876D09DED010ADDED000A94ED051ABF
:102AA000F8EE401A80EEA10ADFEDC70AC7490B22F3
:102AB0005FF0000020EE200A01EBC003D3ED000A16
:102AC000F4EEC00AF1EE10FA03DC401CC0B29042F2
:102AD000F2D301EBC000D0ED011A50ED010A90EDE8
:102AE000002A71EEE02A50ED021A32EE613A30EE21
:102AF000610A82EE832A42EE000AC4ED070AE0680A
:102B000000EE100AF8EE400ADFEDB11A80EEA10ADD
:102B1000D4ED070AC0EE8B1A20EE210A84ED080AD4
:102B200094ED080ADFEDAB0A20EE200A61EE2B0AD5
:102B300080EE201ABCEEC10A10EE100AE080206977
:102B400032283CBF6420E080E0881E2838BFA4F80B
:102B500006A001978DED009AE77012E094ED0C0A43
:102B600094ED051A70EE690AB0EE4A0A0CEEA00A5E
:102B7000C0EE010A20EE8D0ABCEEC00A10EE100A6B
:102B8000E08094ED0D0A944916220020DFED930AAF
:102B900020EE201ADFED920A70EEC00A81EE200AC4
:102BA00001EBC003D3ED000AF4EEC00AF1EE10FA17
:102BB00003D3401CC0B28242F2D801EBC000894965
:102BC00090ED011A50ED010AD0ED001A31EE602AA5
:102BD00010ED021A71EEC12A30EE410AC2EE221A3D
:102BE00041EE800A10EE900AC4ED060A8842B8BF92
:102BF000B1EE000A27DB10EE900A7B498842B8BF8D
:102C0000B1EE080A1FDB10EE900A78498842B8BF7F
:102C1000B2EE000A17DB10EE900A75498842B8BF81
:102C2000B2EE020A0FDB10EE900A72498842B8BF7A
:102C3000B2EE040A07DB10EE900A6F498842B8BF73
:102C4000B2EE060A7CDA84ED050AE1686B4A00EE12
:102C5000101A08230020B8EE401A8CEE010A00BFBB
:102C600002EBC00191ED001AB4EEC01AF1EE10FAB9
:102C700003DC401CC0B29842F2D302EBC000D0ED9E
:102C8000011A10ED011A90ED002A71EEC12A50EDE3
:102C9000021A32EE613A30EE610A82EE832A02EEC7
:102CA000001A84ED1B1AE06894ED1B0AB3EE0E1AAD
:102CB000F0EE001A4AF2D73211EE210A01EE100AA4
:102CC000B8EE411A20EE010A80EE0B1ABCEEC10AE2
:102CD00010EE100A80B200FB0220800D20812189B5
:102CE0006FF018004843E16801EB80004449A0F50B
:102CF000B8507038A1FB00104009206794ED0C0A11
:102D00009FED401A404870EE691AB0EE490A01EE94
:102D1000210ABCEEC00A10EE101A017794ED050AE4
:102D200080ED040AE168394AB2FBF1F10180C0ED9F
:102D3000030AE188418094ED1B0A80ED010A00E05E
:102D400096E02189018194ED0A0A314980ED060A55
:102D50004FF080500860BFF34F8FBFF36F8F47E68F
:102D60002C4A294900200B7F12F800C09C4501D253
:102D7000064603E0401CC0B21028F4D326480025C4
:102D80000B8830F815209A4248D2A8464AE0000045
:102D900078000020340700200000000000000C42F2
:102DA0009224684333336B410000CF42F00000208F
:102DB000C0E1644C0000B443CDCC4C3D00000000A9
:102DC0006666666666664A3FAE47C13FA00500205C
:102DD00000401C46007C1249F004002000609F4522
:102DE00033335340000070410000A0410000F04127
:102DF0000000204200004842000070428000002095
:102E00001F85EB514992B2431C08002000879303B1
:102E100004ED00E0C0000020D00000206A1CD5B204
:102E2000102DADD309EB861000EB8800DFED161AEC
:102E300090ED000A84ED080A84ED090A94ED091A60
:102E400094ED050AC1EE210A1FED1E1A20EE2B0A91
:102E500060EE810A80EE801ABCEEC10A10EE100A04
:102E6000E0802069142838BF9620BFF48AAE87E638
:102E700010EE900A05498842A4BF10EE900A04495A
:102E8000C4ED05AAE1E6000000007A4400008C428F
:102E90000000A042104D114C82B002226946A86E7B
:102EA00002F0C4FE88B1206810F0800FFBD002F061
:102EB000AFF99DF80000606002F0CAF9022269468D
:102EC000A86E02F0B3FE0028EDD14FF0FF310120D3
:102ED00002F006F9E1E700000400002000100140C4
:102EE000124E134D82B000244FF0FF326946686ED7
:102EF00002F09CFE9DF80000611C30558CB23B280E
:102F0000F2D10A4901F15000FDF71EFA00245021C8
:102F10000648FDF707FA0021686E02F0CBFC00239B
:102F200002221946E86D03F03DF8DDE77C0700203A
:102F300004000020AAB03B222C21DD4801F052FC05
:102F400004465021DA48FDF7EDF920680D2880F09D
:102F50009881DFE800F0FD07243D515A7994A2BE24
:102F6000D1FCFB006068012801D050B112E0D149CA
:102F70004FF400708861D0A2D3A106A800F088FBAE
:102F800008E0D2494FF000700860D1A2CEA106A897
:102F900000F07EFB06A802F031F800F07AB9606814
:102FA00001280BD00028F5D1C8494FF08070086087
:102FB000CBA2C5A106A800F06BFBEBE7BD494FF41F
:102FC00080708861CBA2C0A106A800F061FBE1E798
:102FD0006068012802D050B100F05BB9CA480023F4
:102FE00002221946806D02F0DDFF00F052B9C64999
:102FF0000020087000F04DB9606801280CBF012066
:103000000020C149887000F044B9D4E902020DF1F2
:10301000040C3B23BDA18CE80F00BEA00090BFA212
:10302000BFA106A8636800F033FB06A801F0E6FF25
:10303000A08982B2208981B26068002818BF01206F
:1030400002F006F800F025B994ED010AAE48B8EE9A
:10305000400A80ED050A90ED050A10EE100AFDF712
:10306000BEFA00903B22CDE90112B3A2B4A106A89A
:1030700000F00EFB06A801F0C1FF00F00AB93B20EA
:103080000090B2480388B2A2A8A106A800F000FBF5
:1030900006A801F0B3FF00F0FCB8606801280DD06D
:1030A00000287FF477AFAC494FF0005008603B2315
:1030B000AAA2ACA106A800F0EBFA6BE7AB494FF46B
:1030C000005088613B23AAA2A6A106A800F0E0FA5E
:1030D00060E7784AA0884FF4005180B291614AF2CB
:1030E000D73100FB0110800DFDF74EFF77494FF0FF
:1030F0000050086000F0CDB89F4822794FF0A00C36
:103100000168002341F480710160416911F0010FF1
:10311000FBD04169C0F810C0416911F0020FFBD02B
:1031200041698169190A0161416911F0800FFBD081
:103130000361416911F0800FFBD00261416911F018
:10314000040FFBD0016841F4007102E047E00AE09F
:103150009FE0016089A25CA106A800F099FA06A888
:1031600001F04CFF95E08449A1224FF0A00C0868C3
:10317000002340F480700860486910F0010FFBD014
:103180004869C1F810C0486910F0020FFBD04869C7
:103190008869180A0861486910F0800FFBD00B613C
:1031A000486910F0800FFBD0086840F48070086018
:1031B000486910F0010FFBD048690A61486910F0B6
:1031C000020FFBD048698869086820F480600860B5
:1031D000486910F0400FFBD00869C5B241E066496C
:1031E000A027A126002208680DF1980C0C2340F4BA
:1031F00080700860486910F0010FFBD048690F61CA
:10320000486910F0020FFBD048698869100A08610C
:10321000486910F0800FFBD00A61486910F0800FF8
:10322000FBD0086840F480700860486910F0010F16
:10323000FBD048690E61486910F0020FFBD0486965
:10324000886900200A6822F480620A604A6912F0E4
:10325000400FFBD00A690CF80020401CC0B283422A
:10326000F0D8086840F4007008603B2000902B46BE
:1032700043A245A106A800F00BFA06A801F0BEFE85
:1032800007E043A210A106A800F002FA06A801F088
:10329000B5FE802106A8FDF745F80020206060609B
:1032A000A060E060411E2061012001F019FF42E6AC
:1032B000CC070020000402406D61696E52656C65A8
:1032C000794F6E3B00000000257300001804024097
:1032D0006D61696E52656C65794F66663B000000F2
:1032E0006675656C50756D7052656C65794F666674
:1032F0003B0000006675656C50756D7052656C65BD
:10330000794F6E3B0000000004000020737065657B
:1033100064000000636F756E7400000064697200E1
:1033200025732025642025732025642025732025FE
:1033300064202563000000006166723A20000000EE
:103340002573202566202563000000001C0800204E
:1033500072706D2000000000180802406C65642047
:103360004F4E000025732025630000000008024036
:103370006C6564204F464600005400404F6B3B0094
:10338000446174613A0000002573256425630000E0
:10339000496E76616C696420636F6D6D616E642146
:1033A0003B00000010B54FF0E020006902F072FE13
:1033B000012808BF10BDBDE8104002F0C1B90000EF
:1033C000314810B5016821F0070141F002010160A8
:1033D000016801F007010229FAD12C48016821F4A3
:1033E000404141F4004101602948016821F0F801A1
:1033F00041F080010160016841F001010160016854
:1034000011F0020FFBD0234941F208520B68DFF89C
:1034100088C003EA0C031A430A600A6822F44032A7
:103420000A60016841F080710160016811F0007F5D
:10343000FBD01A48016821F0F0010160016821F415
:10344000E05141F480510160016821F4604141F490
:1034500000410160016821F0030141F002010160B7
:10346000016801F00C010829FAD10D48FEF7B0FF00
:103470000020FEF7BBFB08B172B6FEE70948016801
:1034800021F08071016010BD003C024000700040DE
:1034900000380240043802400080BFFF0838024074
:1034A00000BD01058C3802400248016841F47001FA
:1034B0000160704788ED00E05021EFF3118081F347
:1034C0001188BFF34F8FBFF36F8F0B490A6812F05B
:1034D000010F0ED00A6822F001020A6007490A684B
:1034E00022F001020A60064A00211160D106054A55
:1034F000116080F311887047104801400048014076
:1035000024480140180402400148FEF7B2BC000004
:103510009C0800201B48016811F0010F08BF70478C
:103520002DE9F843016821F00101016001200090BC
:1035300015480168491C01600024144DDFF85080D3
:1035400026464FF0805700BF55F83400A0B105EB78
:10355000C402516800291CBF481E50600CD1694646
:1035600001F056FF45F83460009828B1C8F80070A3
:10357000BFF34F8FBFF36F8F601CC4B2142CE3D323
:10358000BDE8F88310040040000000208006002001
:1035900004ED00E070B40268234BDFF890C0244CC7
:1035A000244D984218BFB0F1804F04D060451CBF35
:1035B000A042A84204D14E6822F0700246EA0202FC
:1035C000984218BFB0F1804F14D0604518BFA04298
:1035D00010D0A8421CBFA0F1804CBCF5A03C09D083
:1035E000A0F1804CBCF5A23C1CBFA0F1804CBCF506
:1035F000A43C05D1D1F80CC022F440724CEA02027E
:10360000D1F814C022F0800242EA0C0202608A68FB
:10361000C2620A688262984204BF0969016301219B
:10362000416170BC70470000000001400004004090
:1036300000080040000C004000B583B0012000905D
:103640000F48016811F0200F04BF03B000BD4068AF
:103650008DF804000B4800236A4601A9006802F0B7
:1036600057FA0098002804BF03B000BD4FF0805007
:1036700005490860BFF34F8FBFF36F8F03B000BDE4
:10368000001001406800002004ED00E0FEE70000AB
:103690000FB4084B10B504A902AA039800F0DEF895
:1036A000044602A9002000F05CFC204610BC5DF836
:1036B00014FB0000633F000802E008C8121F08C1A5
:1036C000002AFAD170477047002001E001C1121FA3
:1036D000002AFBD1704700002DE9FF5F82B0002176
:1036E000DDE90430020DDDF840B0034318D044F6A4
:1036F0001050A2F2FF3242431514119801281FD036
:10370000A5EB0B00401C5FEA000A4FF000064E4F8D
:10371000DFF83891B046504615D5CAF1000413E0E1
:10372000119801244AA3012801D16FEA0B010298E4
:10373000119AC0E90031C0E9024206B0BDE8F09F2D
:10374000CBF10000DFE704460021404A491842EB74
:103750000450CDE9001012E0E00707D032463B46A6
:1037600040464946FCF7BCFE8046894632463B4609
:1037700010461946FCF7B4FE06460F466410002CAE
:10378000EAD1DDE90401DDE90023BAF1000F06DA30
:10379000FCF7A6FE42464B46FCF7A2FE05E0FDF70D
:1037A00000F942464B46FDF7FCF804460E4600225F
:1037B000284BFDF77DF903D84FF0FF30014607E0B5
:1037C0000022254B20463146FDF744F8FDF758F915
:1037D000102409E0002C0ADB0A220023FCF758FD24
:1037E000039B30321A55641E50EA0102F2D1641C68
:1037F000039AC4F111031444119A012A03D001223F
:1038000008430DD10AE0084304D000204FF0110B0B
:10381000119072E7A3EB0B056D1E0DE05B4504DD17
:103820004FF0000205F1010504E003DA4FF0000259
:10383000A5F10105002AECD002981199C0E90231E6
:10384000C0E9004579E70000000014400000F03FA7
:10385000300000000000F0430000E03F2DE9FF4F82
:1038600095B09A46884606460025EEE1252877D190
:1038700000242746F94A0121039400E0044316F886
:10388000013F203B01FA03F01042F7D130782A289B
:1038900011D06FF02F033078A0F13002092A16D82A
:1038A000039A44F0020402EB820203EB420210444A
:1038B000761C0390EFE758F8042B0392002A03DAF2
:1038C000504244F40054039044F00204761C3078D3
:1038D0002E2816D116F8010F44F004042A280DD022
:1038E0006FF02F023078A0F13003092B09D807EBD5
:1038F000870302EB4303C718761CF3E758F8047BF1
:10390000761C30786C280FD006DC4C2817D068283D
:103910000DD06A2814D104E0742810D07A280FD171
:103920000DE044F400140AE044F4801401E044F48F
:1039300040147278824202D104F58014761C761C01
:10394000307866280BD013DC582877D009DC0028A3
:1039500075D04528F6D04628F4D047281AD193E1EF
:1039600018E0632835D0642879D0652812D18BE11E
:10397000702873D008DC6728F1D069286FD06E28D2
:103980000DD06F2806D1ACE073282CD0752874D0E8
:10399000782853D05246179990476D1C54E1C4F3D0
:1039A0000250022809D003280DD0D8F800100428AE
:1039B0000DD00D6008F1040846E1D8F80010EA17B0
:1039C000C1E90052F6E7D8F800100D80F2E70D705B
:1039D000F0E718F8041B8DF8001000208DF80100A6
:1039E000EB46012003E058F804BB4FF0FF306107BD
:1039F0004FF0000102D40DE009F101018946B942FE
:103A00000FDA8145F8DB1BF809100029F4D108E032
:103A100009F1010189468142FADB1BF809100029EE
:103A2000F6D103985346A0EB090721463846179A6A
:103A300000F080FA284400EB090507E044E008E1C3
:103A40000DE01BF8010B524617999047B9F1010997
:103A5000F7D2534621463846179AF2E039E00A2158
:103A6000C4F302524FF0000B0091022A06D058F81E
:103A7000040BC117032A09D00AE023E008F107006C
:103A800020F00702F2E80201904605E000B2C117FB
:103A9000042A01D140B2C117002906DA0A460021E2
:103AA000404261EB02012D2202E0220504D52B22C7
:103AB0008DF80420012203E0E20701D02022F7E77D
:103AC000914657E00A2100E010214FF0000B0091D1
:103AD0000BE010214FF0000B44F004040827009184
:103AE00003E008204FF0000B0090C4F30252022ABA
:103AF00005D058F8040B0021032A08D008E008F18B
:103B0000070020F00702F2E80201904603E080B2CD
:103B1000042A00D1C0B24FF0000922072AD532781A
:103B2000702A07D0DDF800C08CF0100C5CEA0B0C9A
:103B300005D00EE040228DF80420012208E050EA72
:103B4000010306D030238DF804308DF805200222C1
:103B50009146009B83F0080353EA0B030AD150EA15
:103B6000010201D1620705D530228DF804204FF003
:103B700001097F1E3278582A04D039A20C920CAA6F
:103B800002920BE03BA2F9E75B46009AFCF780FB50
:103B90000C9B9B5C029A521E0292137050EA010227
:103BA000F2D1029804A9081A00F1200B600702D58F
:103BB00024F4803400E001275F4502DDA7EB0B0011
:103BC00000E0002000EB0B01009003984944401AEC
:103BD0000390E00306D453462146179A039800F059
:103BE000A9F90544002706E001A85246C05D1799CF
:103BF00090476D1C7F1C4F45F6DBE0030CD5534608
:103C00002146179A039800F095F9054404E0302006
:103C10005246179990476D1C0099481E0090002944
:103C2000F5DC08E00298029952460078491C02919E
:103C3000179990476D1CBBF10001ABF1010BF1DC52
:103C40005BE100F065F90544761C307800287FF4CC
:103C50000DAE19B02846BDE8F08F0000092801001C
:103C600030313233343536373839616263646566F2
:103C700000000000303132333435363738394142B4
:103C80004344454600000000600700D4062708F1C1
:103C9000070020F00700F0E80223804603F0004C04
:103CA0005FEA0C0001D097A009E0200501D596A09D
:103CB00005E0E00701D095A001E0AFF24C001390C1
:103CC000307823F0004365280CD006DC452809D065
:103CD00046281DD047287FD13BE0662818D06728AA
:103CE0007AD136E00021112F01DB112000E0781C91
:103CF000CDE9000104A90CA8FFF7EEFCDDE90D01F8
:103D00000C9A4FF0000B07F10109109200914EE060
:103D10004FF000400097CDE9011004A90CA8FFF76F
:103D2000DBFCDDE90D020C9B0F994FF0000B914677
:103D30001093009211B9791C00EB0109B7EB09004F
:103D400003D4C0F1FF3B07F10109A9EB0700019083
:103D500042E0012F00DA01270021112F01DD11209F
:103D600000E03846CDE9000104A90CA8FFF7B4FC37
:103D7000DDE90D010C9A00914FF0000BB94610924D
:103D800021070FD4009A4A4503DA914601E0A9F1D0
:103D90000109B9F1010F05DD109AA9F10101515C8A
:103DA0003029F4D0B84202DA10F1040F03DA01210D
:103DB000CDE9011010E0002803DC8344A9EB0001E9
:103DC00002E0411C494500DD8946A0EB0B00401C88
:103DD00001904FF000400290200705D4019848451B
:103DE00002DB4FF0FF30019000208DF84B0002986D
:103DF0000DF14B07B0F1004F25D002200C902B2085
:103E00000D90029800280CDA404202902D200D906F
:103E100007E00A210298FCF711FC3031029007F804
:103E2000011D0C99481E0C900029F2DC0298002814
:103E3000EFD1791E0D980870307800F0200040F026
:103E4000450007F8020D11A8C01BC01D0290139871
:103E5000007800B1012000EB0901019801EBE0714D
:103E6000029801440398401A401E0390E00306D4D0
:103E700053462146179A039800F05CF805441398BE
:103E8000007818B15246179990476D1CE00323D56E
:103E900053462146179A039800F04CF805441BE05E
:103EA000BBF1000F07DB0098584504DD1098179907
:103EB00010F80B0001E01799302052469047019806
:103EC0000BF1010B401E05F10105019004D12E20DC
:103ED0005246179990476D1CB9F10001A9F10109EB
:103EE000DEDC05E017F8010B5246179990476D1C70
:103EF0000299481E02900029F4DC53462146179A85
:103F000003989EE62D0000002B000000200000001A
:103F10002DE9F041044600251E461746880404D4C6
:103F200005E039462020B0476D1C641EF9D52846AF
:103F3000BDE8F0812DE9F041044600251E4690467B
:103F4000C80301D5302700E02027880404D505E008
:103F500041463846B0476D1C641EF9D52846BDE879
:103F6000F0810A68531C0B601070704790B0FDF729
:103F700023FEFFF725FAFDF733F800250795069590
:103F8000029503950495FE480595016841F00401EA
:103F90000160016801F004010891016841F08001AD
:103FA0000160016801F080010891016841F00101A0
:103FB0000160016801F001010891016841F002010E
:103FC00001600068EF4900F0020008904FF00050D7
:103FD0000860EE49EC480860ED4E0003B061800CCB
:103FE0000124CDE900046946EA48FEF76DF84EF277
:103FF00038000090CDE901454FF0020ACDE9035A9F
:104000006946E548FEF760F8E0030090CDE9014518
:104010000220CDE9035069463046FEF755F84FF4CB
:1040200040700090CDE9014503956946DA48049552
:10403000FEF74AF8D948D0F808084FF4704191FAD1
:10404000A1F1B1FA81F120F4704005FA01F10843C1
:10405000D249C1F808080427081DD0F808180F2213
:1040600092FAA2F2B2FA82F221F00F0105FA02F2FC
:104070001143C0F808188DF81C404FF008098DF85E
:104080001D504FF0030BCDF818908DF81EB006A808
:10409000FDF7B0FF8DF81C408DF81D5003204FF048
:1040A00010088DF81E00CDF8188006A8FDF7A2FFB5
:1040B000F06899FAA9F1B1FA81F14900032202FAF4
:1040C00001F1884399FAA9F1B1FA81F1490005FAA1
:1040D00001F10843F060F06898FAA8F1B1FA81F1B3
:1040E000490002FA01F1884398FAA8F1B1FA81F186
:1040F000490005FA01F10843F060306899FAA9F126
:10410000B1FA81F1490002FA01F1884399FAA9F163
:10411000B1FA81F1490005FA01F1084330603068D5
:1041200098FAA8F1B1FA81F1490002FA01F1884345
:1041300098FAA8F1B1FA81F1490005FA01F10843B2
:104140003060DFF85C82D8F80000C0F30220C0F1D4
:104150000701042988BF0421021D072A34BF00205B
:10416000C01E04FA01F1491E01F0050101FA00F038
:104170008C490025000181F800044FF0E0214FF444
:104180000070C1F80001D8F80000C0F30220C0F1AF
:104190000702042A88BF0422031D072B34BF002016
:1041A000C01E04FA02F2521E02F0050202FA00F0EA
:1041B0007D4A000182F800044FF0E0214FF4806056
:1041C000C1F800016E4E306840F480003060306805
:1041D000002200F48000009005213820FDF76EFDDC
:1041E0003820FDF75BFD72480095019502956F49F7
:1041F0000395C0E9001585600461047680F82050BD
:104200006C49C0E90A15C761C56080F83040446157
:10421000FDF714F808B172B6FEE70520CDE90004F9
:10422000694602956248FCF72DFF08B172B6FEE7B9
:104230000620CDE9000A69465D48FCF723FF08B176
:1042400072B6FEE70720CDE9000B69465848FCF737
:1042500019FF08B172B6FEE7CDE9009769465448E8
:10426000FCF710FF08B172B6FEE7009501950295C4
:1042700003950495059506950795306840F0020072
:1042800030603068CDE90AB400F002000E90C02022
:10429000CDE9080ACDE90C4708A93F48FDF714FF0E
:1042A000DFF81491D9F8000040F40010C9F80000BC
:1042B000D9F80000414F00F400100E90F86820F08B
:1042C0000100F860386820F040003860386820F05D
:1042D000800038603A480295CDE900503815CDE9A4
:1042E00005500001079069463846FDF797FFF868CA
:1042F00020F0FE00F860386840F00100386000955A
:104300000195029503950495D9F8000040F002004C
:10431000C9F80000D9F8000000F002000590D8F8B4
:104320000000C0F30220C0F10701042988BF042166
:10433000021D072A34BF0020C01E04FA01F1491EE5
:1043400001F00E0101FA00F01E49000181F800049D
:104350004FF0E0294FF00050C9F800015320ADF8AC
:1043600000006320184F029069463846FEF736F881
:10437000386820F080003860B86820F0070025E039
:104380003038024018080240000038E318040240A8
:1043900000000240000802400004024000300140DA
:1043A0000CED00E009E000E00AE000E00020014040
:1043B000340700200100000F403802400054004044
:1043C000A08601001DE000E00004004020F48040D1
:1043D000B860786820F070007860B86820F08000DD
:1043E000B860F86840F00100F860386840F00100FB
:1043F00038607D4F019502950395049505953868C1
:1044000040F480203860386800F480200090D8F8AC
:104410000000C0F30220C0F10701042988BF042175
:10442000021D072A34BF0020C01E04FA01F1491EF4
:1044300001F0050101FA00F06C49000181F8000467
:104440004FF08060C9F8000140F24730ADF8040039
:104450004CF24F30DFF89891039001A94846FDF7E0
:10446000BDFFD9F8000020F08000C9F80000D9F89D
:104470000C0040F00100C9F80C00D9F8000040F031
:104480000100C9F800000195009502950695039575
:10449000049505950B950C95386840F01000386030
:1044A000386800F010000790306840F0010030607C
:1044B0003068CDF828B000F0010007904FF4C060DC
:1044C000CDE9080A07200D9008A94A48FDF7FCFD30
:1044D000D8F80000C0F30220C0F10701042988BF0A
:1044E0000421021D072A34BF0020C01E04FA01F176
:1044F000491E01F0050101FA00F03F49000181F871
:1045000000043E492020C1F800014FF41650CDE9C7
:1045100000050C200295CDE90350394C05956946FC
:1045200020460695FDF7A8FF54F8100F20F49040A0
:1045300044F8040B206820F02A0044F80809206899
:1045400040F40050C4F8000054E8000F40F020018F
:1045500044E800100028F7D100F08EF8294A012124
:10456000802000F0BBF8284C0121284A60664802F0
:1045700000F0B4F8A066264A0021264800F0E4F8CE
:104580002064254A0021254800F0DEF86064244AB2
:104590000021244800F0D8F8A064234A00212348D1
:1045A00000F0D2F8E064224A0021224800F0CCF862
:1045B0002065214A0021214800F0C6F86065204AA4
:1045C0000021204800F0C0F8A0651F4A00211F48C4
:1045D00000F0BAF8E0651E4A00211E4800F0B4F869
:1045E000206600F05DF8FEE7443802401AE000E083
:1045F000004801400000024025E000E004E000E047
:1046000000100140BC66000804000020D4660008C9
:1046100078650008952500089C6500087527000846
:10462000C06500080D270008E4650008A9290008F6
:1046300008660008E12E00082C66000851280008D2
:1046400050660008B125000874660008352F000880
:1046500098660008952E000810B5EFF30581002933
:1046600018BF6FF0050404D10024002818BF00F023
:104670009BFE204610BD0000EFF3058000281CBF04
:104680006FF0050070470548016800291CBF4FF016
:10469000FF3070470121016000207047580600205C
:1046A00010B5EFF3058000281CBF6FF0050010BDAA
:1046B0000848016801291CBF4FF0FF3010BD0021E0
:1046C000054A82F8141D0221016000F033FF00202A
:1046D00010BD0000580600200BE000E0F8B51446BD
:1046E0004FF00005EFF30582002A2AD1002818BFF9
:1046F000002926D0D4B1A368E26883B1502A20D320
:104700002269F2B1D4F814C000FB01F6B44518D305
:104710004FF0000CCDF800C001F06FF80AE0002A5D
:1047200001BF2269002A6269002A0AD14FF0000203
:1047300001F01CF8050004D0211C18BF216800F00E
:10474000F9FD2846F8BD0000F0B585B04FEA010339
:104750004FF00006EFF30581039600293FD10028B2
:104760003DD0802418214FF0000C002A2DD0156870
:10477000002D18BFAC4695691DB129466D1E382D18
:1047800003D2157915F0010F02D005B00020F0BD5D
:104790005569002D18BFAC08976887B1D6685C2EA4
:1047A0001DD31269002A18BF002D18D0CDE90012C0
:1047B00002972246614601F086FB03900FE0D56820
:1047C000002D04BF1269002A09D103AACDE9001205
:1047D000A2B2614601F016FB012818BF03960398A8
:1047E00005B0F0BDF0B583B017460D460646FBF7A1
:1047F000A4FD84B24FF0000C6346002C18DDF05C81
:10480000A84204BF0CF1010000F0FF0C01D0B84237
:1048100002D05B1CA342F2DB1B4901F10802101D10
:10482000BCF1050F2CD2DFE80CF0030910182100B1
:10483000154A16A13046FBF791FD21E00B1D124AE7
:1048400013A13046FBF78AFD1AE00B1D00920E4AB9
:1048500011A13046FBF782FD12E0CDE900200B1DCF
:10486000094A10A13046FBF779FD09E0114B00928F
:10487000CDE901030B1D044A0FA13046FBF76EFD85
:1048800003B00148F0BD00002007002025643B0074
:1048900025642C25643B000025642C25642C2564AC
:1048A0003B00000025642C25642C25642C25643BEA
:1048B000000000003007002025642C25642C2564AE
:1048C0002C25642C25643B002DE9F041144C0F4647
:1048D0000546E6682068001D00F038FCB5F1FF3F92
:1048E00007D137B12068BDE8F041011D0D4800F047
:1048F00082BC20683544B5424560206800F104015F
:1049000004D2A06BBDE8F04100F058BC606B00F031
:1049100055FCA06AA84288BFA562BDE8F0810000EE
:1049200008060020D40D00202DE9F041064600F0D5
:104930006FFC2F4DA868401CA86028682D4F10B14F
:10494000686920B329E02E60A868012808BF002408
:1049500023D100BF04EB840007EB800000F020FCB3
:10496000641C382CF6D3244800F01AFC234800F0CD
:1049700017FC234800F014FC224800F011FC2248E8
:1049800000F00EFC1C4868631430A86305E028683A
:10499000F16AC06A884298BF2E60686A401C6862EB
:1049A0007064F06A296988421FD800BF00EB80005C
:1049B00007EB8000311D00F01EFC00F049FC686927
:1049C000002808BFBDE8F0812868F16AC06A884203
:1049D00028BFBDE8F0814FF080500C490860BFF35C
:1049E0004F8FBFF36F8FBDE8F0812861DEE70000D5
:1049F0000806002024090020840D0020980D0020C6
:104A0000AC0D0020C00D0020D40D002004ED00E00E
:104A10001F4E204CDFF88090A6F29C474FF0805844
:104A2000606850B300F0F4FBF068C568281D00F022
:104A30008DFBA068401EA0606068401E606000F0B2
:104A400007FC95F8590058B1012810D0022811D060
:104A5000502080F31188BFF34F8FBFF36F8FFEE7B5
:104A6000286B00F00BFC284600F008FC02E028460A
:104A700000F004FC60680028D4D138680128CFD940
:104A8000C9F80080BFF34F8FBFF36F8FC8E70000F6
:104A9000C00D00200806002004ED00E02DE9F043E1
:104AA00085B0804601F004FB2F4C0746A068874282
:104AB00028BF00203AD2E0680068002831D0E068C2
:104AC000C068C5680668281D00F040FB296A2846B2
:104AD000884795F8280010F0040F1ED0A8693044CC
:104AE000B04206D92D616860291DE06800F066FBC0
:104AF00013E00020814605B3216861B3CDE90006CB
:104B0000029501F0C7FA02284FF000031DD00022E1
:104B10006946206800F012FFE8B1E06800680028EC
:104B2000CDD1D4E90310C4E903010120C8F8000085
:104B3000A76005B03846BDE8F083502080F31188A7
:104B4000BFF34F8FBFF36F8FFEE74A466946206879
:104B500000F0F4FEE0E7502080F31188BFF34F8FA0
:104B6000BFF36F8FFEE7000044060020094840684D
:104B7000B0F1FF3F4FF0500080F3118804D0BFF335
:104B80004F8FBFF36F8FFEE7BFF34F8FBFF36F8F72
:104B9000FEE7000074060020DFF8F4B2BD4C8EB0D2
:104BA0004FF0805AE0680168002907BF0125002600
:104BB0000025C06818BF066800F002FD05A8FFF7D1
:104BC0006DFF0746059800283ED001F065FB0022E6
:104BD00006A9206801F02AF80028E3D006980028EA
:104BE00007DADDE90801079A904706980028C0F225
:104BF0004681089E706900281CBF301D00F0A6FA8F
:104C000001F056FA8046A068804574D2E0680068DA
:104C1000002871D0E068C068C5680768281D00F0EA
:104C200095FA296A2846884795F8280010F0040F5D
:104C300077D0A8693844B8425FD92D616860291DD2
:104C4000E06800F0BBFA6CE0ADB1206900680028B4
:104C50000CBF01250025F11B2A46206800F07EFBD1
:104C600001F01AFB0028B2D1CBF800A0BFF34F8FA0
:104C7000BFF36F8FABE7BE42EDD801F00DFBE068EC
:104C8000C068C568281D00F061FA95F8280010F08A
:104C9000040F04BF20F0010085F828001FD0A86988
:104CA0002D6130446860B84207D8A869B91B8142B9
:104CB0003CBF291D206909D205E0BE4201D98642C8
:104CC00004D9291DE06800F079FA08E000200346C5
:104CD000014600903246284601F012FC18B1296ABC
:104CE0002846884773E7502080F31188BFF34F8F21
:104CF000BFF36F8FFEE71DE018E0002081462DB363
:104D0000216889B3CDE90A070C9501F0C3F902289F
:104D10004FF0000322D000220AA9206800F00EFE06
:104D200010B3E068006800287FF474AFD4E9031082
:104D3000C4E90301C4F8088006980A2853D2DFE8C2
:104D400000F01C1C1C6C73921C1C6C73502080F3B4
:104D50001188BFF34F8FBFF36F8FFEE74A460AA952
:104D6000206800F0EBFDDBE7FFE7502080F31188BF
:104D7000BFF34F8FBFF36F8FFEE796F8280040F028
:104D8000010086F828000799B06936610844706010
:104D9000404505D8B069A8EB0101814204D254E036
:104DA00041455DD981425BD8316A3046884796F8E3
:104DB000280010F0040F62D00799B2690020114456
:104DC0000546A6B1226802B30496CDE9020101F0BE
:104DD00061F902284FF0000311D0002202A92068D7
:104DE00000F0ACFD88B14AE000F0E8F947E050205F
:104DF00080F31188BFF34F8FBFF36F8FFEE72A4612
:104E000002A9206800F09AFDECE7502080F3118899
:104E1000BFF34F8FBFF36F8FFEE796F8280020F0A7
:104E2000010086F828002AE096F8280040F00100EA
:104E300086F828000798B06150B140443661706030
:104E400080450DD3B069002819D9311D2069CBE701
:104E5000502080F31188BFF34F8FBFF36F8FFEE7B1
:104E6000311DE068C0E796F8280010F0020F0DBF72
:104E7000304620F0010086F8280000F0FFF90022FB
:104E800006A9206800F0D2FE00287FF4A7AE89E6CC
:104E900004ED00E04406002070B5044600F0B8F9C7
:104EA00094F94550002D0DDD606A58B104F12400DD
:104EB00001F0B8F9002818BF00F0A4FA681E45B246
:104EC000002DF1DC4FF0FF3684F8456000F0C0F9AA
:104ED00000F09EF994F94450002D0DDD206958B181
:104EE00004F1100001F09EF9002818BF00F08AFAC2
:104EF000681E45B2002DF1DC84F84460BDE87040C6
:104F000000F0A6B970B50646002400F059FB2D4804
:104F100000F10803416800F1100569B92A49A44667
:104F200021F00701C3E9001C43F6F832C5E900C2CD
:104F3000C1E9005201214160002E3ED006F1080275
:104F400012F0070F04D002F00701C1F108010A4472
:104F5000511E43F6F73C61453CBFDFF870C019684D
:104F60002BD24B68934205D20B68002B1CBF8C469A
:104F70001946F6D1A94220D0DCF8003003F108042C
:104F80000B68CCF800304B689B1A102B11D901EB41
:104F9000020C0E4DCCF804304A60DCF804302A686C
:104FA00056689E4238BF1546F9D3CCF80020C5F8A4
:104FB00000C049680268511A016001F06DF920468D
:104FC00070BD00005C060020C015002064060020B3
:104FD0004FF0807C40F804CC21F0010140F8081C1F
:104FE000054B40F80C3C40F8202C6FF0020240F8D2
:104FF000242C4438704700006D4B000870B50546FE
:105000000024FBF79AF900288CBF104E70BD285D74
:1050100005EB04013B28B06E4FF000034FF0FF3268
:1050200009D000F08BFC601CC4B22846FBF785F960
:10503000A042ECD870BD00F081FC306EBDE870403D
:1050400000230222194600F0ADBF0000040000203A
:105050002DE9F84F0E461F4915460A68C2F3C002F3
:105060008DF801200968B5F57A7FC1F340118DF8FC
:10507000001088BF4FF47A75DFF85C90174F002856
:1050800019BF2020C9F818004FF4001038604FF401
:105090000020386000244FF48018002E88BF4FF4A1
:1050A0007A7A0FD91020C9F818000120FFF7D4FA36
:1050B000C7F80080BAFBF5F0FFF7CEFA601C84B2A7
:1050C000A642EFD8C7F800800820C9F81800BDE84C
:1050D000F88F00001404024000040240180402404B
:1050E00070B50D46064600F093F8164C2068406DEA
:1050F00080B92168012081F858005DB1012128465E
:10510000FFF7E2FB10494FF080500860BFF34F8F6C
:10511000BFF36F8F00F09CF800F07AF82068456DBF
:1051200000203DB1002E03BF691E22685165216831
:1051300018BF4865216881F8580000F089F82846B2
:1051400070BD00000806002004ED00E0D0E9013247
:1051500001699A60D0E901235A604A68824204BF1B
:1051600082684A60002202610868401E0860086880
:1051700070470000034B036003F15C00086080206F
:1051800010607047000F0020044B036003F15C00C7
:1051900008604FF480701060704700005C110020C0
:1051A00000F108014FF0FF32C0E90112C160016156
:1051B00000210160704700210161704710B40B6845
:1051C000B3F1FF3F0CBF026900F1080208D000BF35
:1051D000D2F804C0DCF800409C4298BF6246F7D980
:1051E00053684B6099608A60516008610168491C8E
:1051F000016010BC704742684A6093688B60936896
:105200005960916008610168491C016070470000A5
:10521000502080F31188BFF34F8FBFF36F8F0A497F
:105220004868401C4860012818BF7047074800685C
:1052300010F0FF0F08BF7047502080F31188BFF3B4
:105240004F8FBFF36F8FFEE77406002004ED00E080
:105250000948416839B1491E416018BF70470020B4
:1052600080F311887047502080F31188BFF34F8F6F
:10527000BFF36F8FFEE7000074060020002808BF10
:10528000704710B5A0F1080400F09AF90948616868
:10529000026853688B4238BF1046F9D3226004601D
:1052A00005486168026811440160BDE8104000F0E3
:1052B000F3BF0000640600205C0600204FF0E020F1
:1052C00000210161816105494FF47A720968B1FBDF
:1052D000F2F1491E41610721016170470406002077
:1052E00010B5FAF7BFFF114910280ED300F1E020E6
:1052F00090F8F0030A78824207D9502080F3118891
:10530000BFF34F8FBFF36F8FFEE7094800688968CE
:1053100000F4E060884298BF10BD502080F31188EF
:10532000BFF34F8FBFF36F8FFEE7000074060020BE
:105330000CED00E0084B002253F832C0BCF1000F26
:1053400003D0521C082AF7D3704743F8321003EBFE
:10535000C201486070470000E408002070B515469F
:105360000E460446FFF754FF94F94400B0F1FF3FA6
:105370004FF0000008BF84F8440094F94510B1F1E3
:10538000FF3F08BF84F84500FFF762FFA06B28B914
:105390002A46314604F1240000F0AEF82046BDE86C
:1053A0007040FFF779BD000010B5A8B10F490A6B36
:1053B0003AB1502080F31188BFF34F8FBFF36F8F46
:1053C000FEE70A6B521C0A630021FFF77DFA00F02A
:1053D00063FF002818BF10BD4FF0805004490860DB
:1053E000BFF34F8FBFF36F8F10BD00000806002082
:1053F00004ED00E002490A6A0260C9684160704732
:105400000806002001490120C861704708060020F5
:105410002DE9F0410F46040015D0FFF761FF502041
:10542000EFF3118680F31188BFF34F8FBFF36F8FB7
:1054300094F85800022184F85810616D491C616588
:10544000012808D032E0502080F31188BFF34F8F3D
:10545000BFF36F8FFEE7A06A38B1502080F3118848
:10546000BFF34F8FBFF36F8FFEE7134D286B0028FC
:105470001CBF04F1180111480CD1201DFFF766FE76
:10548000E06A2969884215D80D4900EB800001EBDC
:105490008000211DFFF7AFFEE06A2968C96A8842D3
:1054A00004D90120002F18BF3860E86186F3118805
:1054B000BDE8F0812861E7E708060020AC0D002078
:1054C0002409002010B50C4658B10A4A126802F1AE
:1054D0001801FFF773FE2046BDE810400121FFF7D9
:1054E000F3B9502080F31188BFF34F8FBFF36F8F54
:1054F000FEE700000806002070B514460D4670B1A6
:105500000B4909681831FFF776FE002C18BF4FF0E1
:10551000FF3521462846BDE87040FFF7D5B9502039
:1055200080F31188BFF34F8FBFF36F8FFEE700004A
:105530000806002030B587B00024039405AA04A90A
:1055400003A80494FFF716FEDDE903010094CDE9FA
:105550000110002316A11848059A00F0B4FC174D5D
:105560000028E86204BF07B030BD00F073FF0128D7
:105570000CD0B0F1FF3F1CBF07B030BD502080F30E
:105580001188BFF34F8FBFF36F8FFEE7502080F37A
:105590001188BFF34F8FBFF36F8F4FF0FF30A862BA
:1055A00001206861EC6007B0BDE8304000F046B80B
:1055B00049444C4500000000114A0008080600203C
:1055C0000248016B491C0163704700000806002077
:1055D000184B186B00281EBF0120D86170470020AF
:1055E000D8611869144900EB800251F822203AB9B9
:1055F000B8B1401E00EB800251F82220002AF7D0FB
:1056000000EB800201EB820101F1080C4A6852684C
:105610004A60624504BF52684A60D16819601861E7
:105620007047502080F31188BFF34F8FBFF36F8F07
:10563000FEE700000806002024090020394810B5C4
:10564000016882B0384A914207D1502080F3118816
:10565000BFF34F8FBFF36F8FFEE700683349884277
:1056600007D1502080F31188BFF34F8FBFF36F8FA6
:10567000FEE72F4A10780190FF20107010788DF807
:1056800000009DF800009DF8001000F0F000884236
:1056900007D0502080F31188BFF34F8FBFF36F8F77
:1056A000FEE79DF80000234C00F05000207007201A
:1056B000A0609DF8001011F0800F0DD09DF8001033
:1056C00049008DF800109DF80010401E11F0800F69
:1056D000F4D1A060032807D0502080F31188BFF3D5
:1056E0004F8FBFF36F8FFEE74FF44070A0600198BB
:1056F00010701148016841F470010160016841F0C7
:1057000070410160FFF7DAFD00206060FAF772FD7A
:105710000A48016841F040410160FAF757FD02B0C4
:10572000002010BD00ED00E071C20F4170C20F41BA
:1057300000E400E07406002020ED00E034EF00E01B
:1057400010B5502080F31188BFF34F8FBFF36F8FD8
:1057500000F0B4FC18B104494FF0805008600020FC
:1057600080F3118810BD000004ED00E02DE9F04742
:10577000164689465FEA000837D008FB09F050302A
:10578000FFF7C0FB05002DD0002705F1500085F87C
:1057900046702C46B9F1000F0CBF24602060C4E9AC
:1057A0000F89FFF735FDD4E90F122068A76301FBCD
:1057B0000200A0602068491E606001FB0200E060FA
:1057C0004FF0FF3084F8440084F8450004F11000E5
:1057D000FFF7E6FC04F12400FFF7E2FCFFF738FDD9
:1057E00084F84C602846BDE8F087502080F311888B
:1057F000BFF34F8FBFF36F8FFEE7F8B5069D18B16B
:1058000053B1CAB181B120E0502080F31188BFF3B9
:105810004F8FBFF36F8FFEE7502080F31188BFF3E7
:105820004F8FBFF36F8FFEE7502080F31188BFF3D7
:105830004F8FBFF36F8FFEE739B1502080F311888F
:10584000BFF34F8FBFF36F8FFEE74FF0500CCDF8D3
:1058500000C01E464FF0010C83F846C034460029B4
:105860000CBF24602260C4E90F01FFF7D1FCD4E92A
:105870000F12206801FB0200A0600020A0632068D6
:10588000491E606001FB0200E0604FF0FF3084F8C9
:10589000440084F8450004F11000FFF781FC04F196
:1058A0002400FFF77DFCFFF7D3FC84F84C50304612
:1058B000F8BD000070B50D46040023D0FFF7A8FC2A
:1058C000D4E90F12206801FB0200A0600020A06351
:1058D0002068491E606001FB0200E0604FF0FF306D
:1058E00084F8440084F84500A5B104F11000FFF7E6
:1058F00057FC04F12400FFF753FC00BFFFF7A8FC9E
:10590000012070BD502080F31188BFF34F8FBFF38B
:105910006F8FFEE720690028F0D004F1100000F03E
:1059200081FC0028EAD004494FF080500860BFF3A2
:105930004F8FBFF36F8FE1E704ED00E02DE9FF4FDC
:1059400083B01D4689464FF0000A040003D0B9F128
:10595000000F08D011E0502080F31188BFF34F8F63
:10596000BFF36F8FFEE7206C38B1502080F31188B1
:10597000BFF34F8FBFF36F8FFEE7022D0AD1E06BAD
:10598000012807D0502080F31188BFF34F8FBFF359
:105990006F8FFEE700F07EFB5C4F4FF000084FF08A
:1059A000805648B9059838B1502080F31188BFF36C
:1059B0004F8FBFF36F8FFEE7FFF72AFCA16BE06B01
:1059C000814208D3022D06D0059800284FD0BAF1A5
:1059D000000F4FD053E0AB46A56B49464FF0000A8D
:1059E000226C9AB1BBF1000F19D0E068FAF781FC84
:1059F000E168206C091AE1602268914202D2A16834
:105A0000081AE060BBF1020F19D115E02068B0B9A7
:105A1000A06800F0C5FB8246C4F808800FE060680B
:105A2000FAF767FC216C606808446060A1688842EE
:105A300024BF2068606002E0002D18BF6D1E681C46
:105A4000A063606A28B104F1240000F0EBFB40B1D0
:105A500002E0BAF1000F04D03E60BFF34F8FBFF3F6
:105A60006F8FFFF7F5FB07B00120BDE8F08FFFF760
:105A7000EFFB24E06846FFF7BDFC4FF0010AFFF79B
:105A8000E7FBFFF79DFDFFF7C3FB94F94400B0F17E
:105A9000FF3F08BF84F8448094F94500B0F1FF3F10
:105AA00008BF84F84580FFF7D3FB05A9684600F0DE
:105AB00069F940B12046FFF7EFF900F0EDFB07B0C0
:105AC0000020BDE8F08FFFF7A3FBA06BE16B8842DD
:105AD00014D1FFF7BDFB04F110000599FFF7F2FCAC
